:020000040000FA
:020000000D28C9
:08000800A000030EA100210E6F
:100010008300A00E200E0900080083160030850022
:100020009F010430810000308B008312073099005B
:100030000030A2000730A3000B1185191C28B63030
:10004000810085191C280B1D2128851D252885194F
:1000500027280B11ED3081000B1D2C28851D36281B
:100060003128A213A20CA30B27283B28A217A20C0D
:10007000A30B25283B281430A40009302202031CBE
:100080000000432818288516462885126430810010
:100090000B114D28A40B462845280B1D4D284A2836
:02400E00843FED
:00000001FF
